{
  "_format": "hh-sol-artifact-1",
  "contractName": "Accumulator",
  "sourceName": "contracts/Accumulator.sol",
  "abi": [
    {
      "inputs": [
        {
          "internalType": "address",
          "name": "_issuerRegistryAddress",
          "type": "address"
        },
        {
          "internalType": "address",
          "name": "_subAccumulatorAddress",
          "type": "address"
        },
        {
          "internalType": "bytes",
          "name": "_g",
          "type": "bytes"
        },
        {
          "internalType": "bytes",
          "name": "_n",
          "type": "bytes"
        }
      ],
      "stateMutability": "nonpayable",
      "type": "constructor"
    },
    {
      "anonymous": false,
      "inputs": [
        {
          "indexed": false,
          "internalType": "bytes32",
          "name": "",
          "type": "bytes32"
        }
      ],
      "name": "pastHash",
      "type": "event"
    },
    {
      "inputs": [
        {
          "internalType": "uint256",
          "name": "_id",
          "type": "uint256"
        }
      ],
      "name": "getCurrGlobalAcc",
      "outputs": [
        {
          "internalType": "bytes",
          "name": "",
          "type": "bytes"
        }
      ],
      "stateMutability": "view",
      "type": "function"
    },
    {
      "inputs": [],
      "name": "getGlobalAcc",
      "outputs": [
        {
          "internalType": "bytes",
          "name": "",
          "type": "bytes"
        },
        {
          "internalType": "bytes",
          "name": "",
          "type": "bytes"
        },
        {
          "internalType": "bytes",
          "name": "",
          "type": "bytes"
        }
      ],
      "stateMutability": "view",
      "type": "function"
    },
    {
      "inputs": [],
      "name": "getModulus",
      "outputs": [
        {
          "internalType": "bytes",
          "name": "",
          "type": "bytes"
        }
      ],
      "stateMutability": "view",
      "type": "function"
    },
    {
      "inputs": [
        {
          "internalType": "uint256",
          "name": "_id",
          "type": "uint256"
        }
      ],
      "name": "getNextStaticAcc",
      "outputs": [
        {
          "internalType": "bytes",
          "name": "",
          "type": "bytes"
        }
      ],
      "stateMutability": "view",
      "type": "function"
    },
    {
      "inputs": [
        {
          "internalType": "uint256",
          "name": "_id",
          "type": "uint256"
        }
      ],
      "name": "getStaticAcc",
      "outputs": [
        {
          "internalType": "uint256",
          "name": "",
          "type": "uint256"
        },
        {
          "internalType": "bytes",
          "name": "",
          "type": "bytes"
        }
      ],
      "stateMutability": "view",
      "type": "function"
    },
    {
      "inputs": [
        {
          "internalType": "bytes",
          "name": "_acc",
          "type": "bytes"
        }
      ],
      "name": "getTx",
      "outputs": [
        {
          "internalType": "bytes32",
          "name": "",
          "type": "bytes32"
        }
      ],
      "stateMutability": "view",
      "type": "function"
    },
    {
      "inputs": [
        {
          "internalType": "uint256",
          "name": "_bitmap",
          "type": "uint256"
        },
        {
          "internalType": "bytes",
          "name": "_staticAcc",
          "type": "bytes"
        },
        {
          "internalType": "bytes",
          "name": "_newGlobalAcc",
          "type": "bytes"
        },
        {
          "internalType": "bytes32",
          "name": "_bitmapHash",
          "type": "bytes32"
        },
        {
          "internalType": "bytes",
          "name": "_signature",
          "type": "bytes"
        }
      ],
      "name": "update",
      "outputs": [],
      "stateMutability": "nonpayable",
      "type": "function"
    },
    {
      "inputs": [
        {
          "internalType": "uint256",
          "name": "_id",
          "type": "uint256"
        },
        {
          "internalType": "bytes32",
          "name": "_txHash",
          "type": "bytes32"
        },
        {
          "internalType": "bytes32",
          "name": "_msgHash",
          "type": "bytes32"
        },
        {
          "internalType": "bytes",
          "name": "_signature",
          "type": "bytes"
        }
      ],
      "name": "updateTx",
      "outputs": [],
      "stateMutability": "nonpayable",
      "type": "function"
    },
    {
      "inputs": [
        {
          "internalType": "uint256",
          "name": "_epoch",
          "type": "uint256"
        }
      ],
      "name": "verifyBitmapSignature",
      "outputs": [
        {
          "internalType": "bool",
          "name": "",
          "type": "bool"
        }
      ],
      "stateMutability": "view",
      "type": "function"
    },
    {
      "inputs": [
        {
          "internalType": "bytes",
          "name": "_acci",
          "type": "bytes"
        },
        {
          "internalType": "bytes",
          "name": "_accj",
          "type": "bytes"
        },
        {
          "internalType": "bytes32",
          "name": "_targetHash",
          "type": "bytes32"
        }
      ],
      "name": "verifyHash",
      "outputs": [
        {
          "internalType": "bool",
          "name": "",
          "type": "bool"
        }
      ],
      "stateMutability": "pure",
      "type": "function"
    },
    {
      "inputs": [
        {
          "internalType": "uint256",
          "name": "_id",
          "type": "uint256"
        }
      ],
      "name": "verifyTransactionSignature",
      "outputs": [
        {
          "internalType": "bool",
          "name": "",
          "type": "bool"
        }
      ],
      "stateMutability": "view",
      "type": "function"
    }
  ],
  "bytecode": "0x6080604052600060035534801561001557600080fd5b50604051612171380380612171833981810160405281019061003791906102c5565b83600660006101000a81548173ffffffffffffffffffffffffffffffffffffffff021916908373ffffffffffffffffffffffffffffffffffffffff16021790555082600760006101000a81548173ffffffffffffffffffffffffffffffffffffffff021916908373ffffffffffffffffffffffffffffffffffffffff16021790555081600090816100c89190610585565b5080600190816100d89190610585565b5081600290816100e89190610585565b5050505050610657565b6000604051905090565b600080fd5b600080fd5b600073ffffffffffffffffffffffffffffffffffffffff82169050919050565b600061013182610106565b9050919050565b61014181610126565b811461014c57600080fd5b50565b60008151905061015e81610138565b92915050565b600080fd5b600080fd5b6000601f19601f8301169050919050565b7f4e487b7100000000000000000000000000000000000000000000000000000000600052604160045260246000fd5b6101b78261016e565b810181811067ffffffffffffffff821117156101d6576101d561017f565b5b80604052505050565b60006101e96100f2565b90506101f582826101ae565b919050565b600067ffffffffffffffff8211156102155761021461017f565b5b61021e8261016e565b9050602081019050919050565b60005b8381101561024957808201518184015260208101905061022e565b60008484015250505050565b6000610268610263846101fa565b6101df565b90508281526020810184848401111561028457610283610169565b5b61028f84828561022b565b509392505050565b600082601f8301126102ac576102ab610164565b5b81516102bc848260208601610255565b91505092915050565b600080600080608085870312156102df576102de6100fc565b5b60006102ed8782880161014f565b94505060206102fe8782880161014f565b935050604085015167ffffffffffffffff81111561031f5761031e610101565b5b61032b87828801610297565b925050606085015167ffffffffffffffff81111561034c5761034b610101565b5b61035887828801610297565b91505092959194509250565b600081519050919050565b7f4e487b7100000000000000000000000000000000000000000000000000000000600052602260045260246000fd5b600060028204905060018216806103b657607f821691505b6020821081036103c9576103c861036f565b5b50919050565b60008190508160005260206000209050919050565b60006020601f8301049050919050565b600082821b905092915050565b6000600883026104317fffffffffffffffffffffffffffffffffffffffffffffffffffffffffffffffff826103f4565b61043b86836103f4565b95508019841693508086168417925050509392505050565b6000819050919050565b6000819050919050565b600061048261047d61047884610453565b61045d565b610453565b9050919050565b6000819050919050565b61049c83610467565b6104b06104a882610489565b848454610401565b825550505050565b600090565b6104c56104b8565b6104d0818484610493565b505050565b5b818110156104f4576104e96000826104bd565b6001810190506104d6565b5050565b601f8211156105395761050a816103cf565b610513846103e4565b81016020851015610522578190505b61053661052e856103e4565b8301826104d5565b50505b505050565b600082821c905092915050565b600061055c6000198460080261053e565b1980831691505092915050565b6000610575838361054b565b9150826002028217905092915050565b61058e82610364565b67ffffffffffffffff8111156105a7576105a661017f565b5b6105b1825461039e565b6105bc8282856104f8565b600060209050601f8311600181146105ef57600084156105dd578287015190505b6105e78582610569565b86555061064f565b601f1984166105fd866103cf565b60005b8281101561062557848901518255600182019150602085019450602081019050610600565b86831015610642578489015161063e601f89168261054b565b8355505b6001600288020188555050505b505050505050565b611b0b806106666000396000f3fe608060405234801561001057600080fd5b50600436106100a95760003560e01c80638c96768c116100715780638c96768c14610178578063a229cde414610194578063a43ec33c146101c4578063c154472b146101f4578063c72e36f914610224578063d59a73ab14610255576100a9565b80632cbc96f8146100ae5780634aded5e2146100de57806356be3ab6146100fc5780637ca4a2901461012c5780638999336f14610148575b600080fd5b6100c860048036038101906100c39190610f45565b610275565b6040516100d59190611002565b60405180910390f35b6100e661031d565b6040516100f39190611002565b60405180910390f35b61011660048036038101906101119190610f45565b6103af565b6040516101239190611002565b60405180910390f35b6101466004803603810190610141919061118f565b610457565b005b610162600480360381019061015d9190611212565b6105d0565b60405161016f919061126a565b60405180910390f35b610192600480360381019061018d9190611285565b6105fb565b005b6101ae60048036038101906101a99190611354565b610831565b6040516101bb91906113fa565b60405180910390f35b6101de60048036038101906101d99190610f45565b610877565b6040516101eb91906113fa565b60405180910390f35b61020e60048036038101906102099190610f45565b610a03565b60405161021b91906113fa565b60405180910390f35b61023e60048036038101906102399190610f45565b610ad5565b60405161024c929190611424565b60405180910390f35b61025d610b9b565b60405161026c93929190611454565b60405180910390f35b6060600460008381526020019081526020016000206003018054610298906114cf565b80601f01602080910402602001604051908101604052809291908181526020018280546102c4906114cf565b80156103115780601f106102e657610100808354040283529160200191610311565b820191906000526020600020905b8154815290600101906020018083116102f457829003601f168201915b50505050509050919050565b60606001805461032c906114cf565b80601f0160208091040260200160405190810160405280929190818152602001828054610358906114cf565b80156103a55780601f1061037a576101008083540402835291602001916103a5565b820191906000526020600020905b81548152906001019060200180831161038857829003601f168201915b5050505050905090565b60606004600083815260200190815260200160002060020180546103d2906114cf565b80601f01602080910402602001604051908101604052809291908181526020018280546103fe906114cf565b801561044b5780601f106104205761010080835404028352916020019161044b565b820191906000526020600020905b81548152906001019060200180831161042e57829003601f168201915b50505050509050919050565b8181600115156104678383610d55565b1515146104a9576040517f08c379a00000000000000000000000000000000000000000000000000000000081526004016104a09061155d565b60405180910390fd5b60006004600088815260200190815260200160002060030180546104cc906114cf565b80601f01602080910402602001604051908101604052809291908181526020018280546104f8906114cf565b80156105455780601f1061051a57610100808354040283529160200191610545565b820191906000526020600020905b81548152906001019060200180831161052857829003601f168201915b505050505090508560058260405161055d91906115b9565b9081526020016040518091039020600001819055508460058260405161058391906115b9565b908152602001604051809103902060010181905550836005826040516105a991906115b9565b908152602001604051809103902060020190816105c6919061177c565b5050505050505050565b60006005826040516105e291906115b9565b9081526020016040518091039020600001549050919050565b81816001151561060b8383610d55565b15151461064d576040517f08c379a00000000000000000000000000000000000000000000000000000000081526004016106449061155d565b60405180910390fd5b6000600760009054906101000a900473ffffffffffffffffffffffffffffffffffffffff16905060008173ffffffffffffffffffffffffffffffffffffffff1663757991a86040518163ffffffff1660e01b8152600401602060405180830381865afa1580156106c1573d6000803e3d6000fd5b505050506040513d601f19601f820116820180604052508101906106e59190611863565b905088600460008381526020019081526020016000206000018190555087600460008381526020019081526020016000206001019081610725919061177c565b5084600460008381526020019081526020016000206004019081610749919061177c565b5085600460008381526020019081526020016000206005018190555086600460008381526020019081526020016000206003019081610788919061177c565b508760046000600354815260200190815260200160002060020190816107ae919061177c565b507ffe05ace5d934ba2a9ad8efef96fc4a47e1cb63bb74ff430d644310f6bd0d905f6000886040516020016107e4929190611913565b60405160208183030381529060405280519060200120604051610807919061126a565b60405180910390a1806003819055508660009081610825919061177c565b50505050505050505050565b6000818484604051602001610847929190611937565b604051602081830303815290604052805190602001200361086b5760019050610870565b600090505b9392505050565b60008060046000848152602001908152602001600020600301805461089b906114cf565b80601f01602080910402602001604051908101604052809291908181526020018280546108c7906114cf565b80156109145780601f106108e957610100808354040283529160200191610914565b820191906000526020600020905b8154815290600101906020018083116108f757829003601f168201915b50505050509050600060058260405161092d91906115b9565b90815260200160405180910390206002018054610949906114cf565b80601f0160208091040260200160405190810160405280929190818152602001828054610975906114cf565b80156109c25780601f10610997576101008083540402835291602001916109c2565b820191906000526020600020905b8154815290600101906020018083116109a557829003601f168201915b5050505050905060006005836040516109db91906115b9565b90815260200160405180910390206001015490506109f98183610d55565b9350505050919050565b600080600460008481526020019081526020016000206005015490506000600460008581526020019081526020016000206004018054610a42906114cf565b80601f0160208091040260200160405190810160405280929190818152602001828054610a6e906114cf565b8015610abb5780601f10610a9057610100808354040283529160200191610abb565b820191906000526020600020905b815481529060010190602001808311610a9e57829003601f168201915b50505050509050610acc8282610d55565b92505050919050565b60006060600460008481526020019081526020016000206000015460046000858152602001908152602001600020600101808054610b12906114cf565b80601f0160208091040260200160405190810160405280929190818152602001828054610b3e906114cf565b8015610b8b5780601f10610b6057610100808354040283529160200191610b8b565b820191906000526020600020905b815481529060010190602001808311610b6e57829003601f168201915b5050505050905091509150915091565b6060806060600060016002828054610bb2906114cf565b80601f0160208091040260200160405190810160405280929190818152602001828054610bde906114cf565b8015610c2b5780601f10610c0057610100808354040283529160200191610c2b565b820191906000526020600020905b815481529060010190602001808311610c0e57829003601f168201915b50505050509250818054610c3e906114cf565b80601f0160208091040260200160405190810160405280929190818152602001828054610c6a906114cf565b8015610cb75780601f10610c8c57610100808354040283529160200191610cb7565b820191906000526020600020905b815481529060010190602001808311610c9a57829003601f168201915b50505050509150808054610cca906114cf565b80601f0160208091040260200160405190810160405280929190818152602001828054610cf6906114cf565b8015610d435780601f10610d1857610100808354040283529160200191610d43565b820191906000526020600020905b815481529060010190602001808311610d2657829003601f168201915b50505050509050925092509250909192565b600080610d628484610e28565b90506000600660009054906101000a900473ffffffffffffffffffffffffffffffffffffffff169050600115158173ffffffffffffffffffffffffffffffffffffffff1663c6f3a9aa846040518263ffffffff1660e01b8152600401610dc8919061199c565b602060405180830381865afa158015610de5573d6000803e3d6000fd5b505050506040513d601f19601f82011682018060405250810190610e0991906119e3565b151503610e1b57600192505050610e22565b6000925050505b92915050565b6000806000806041855114610e435760009350505050610ef5565b6020850151925060408501519150606085015160001a9050601b8160ff161015610e7757601b81610e749190611a4c565b90505b601b8160ff1614158015610e8f5750601c8160ff1614155b15610ea05760009350505050610ef5565b60018682858560405160008152602001604052604051610ec39493929190611a90565b6020604051602081039080840390855afa158015610ee5573d6000803e3d6000fd5b5050506020604051035193505050505b92915050565b6000604051905090565b600080fd5b600080fd5b6000819050919050565b610f2281610f0f565b8114610f2d57600080fd5b50565b600081359050610f3f81610f19565b92915050565b600060208284031215610f5b57610f5a610f05565b5b6000610f6984828501610f30565b91505092915050565b600081519050919050565b600082825260208201905092915050565b60005b83811015610fac578082015181840152602081019050610f91565b60008484015250505050565b6000601f19601f8301169050919050565b6000610fd482610f72565b610fde8185610f7d565b9350610fee818560208601610f8e565b610ff781610fb8565b840191505092915050565b6000602082019050818103600083015261101c8184610fc9565b905092915050565b6000819050919050565b61103781611024565b811461104257600080fd5b50565b6000813590506110548161102e565b92915050565b600080fd5b600080fd5b7f4e487b7100000000000000000000000000000000000000000000000000000000600052604160045260246000fd5b61109c82610fb8565b810181811067ffffffffffffffff821117156110bb576110ba611064565b5b80604052505050565b60006110ce610efb565b90506110da8282611093565b919050565b600067ffffffffffffffff8211156110fa576110f9611064565b5b61110382610fb8565b9050602081019050919050565b82818337600083830152505050565b600061113261112d846110df565b6110c4565b90508281526020810184848401111561114e5761114d61105f565b5b611159848285611110565b509392505050565b600082601f8301126111765761117561105a565b5b813561118684826020860161111f565b91505092915050565b600080600080608085870312156111a9576111a8610f05565b5b60006111b787828801610f30565b94505060206111c887828801611045565b93505060406111d987828801611045565b925050606085013567ffffffffffffffff8111156111fa576111f9610f0a565b5b61120687828801611161565b91505092959194509250565b60006020828403121561122857611227610f05565b5b600082013567ffffffffffffffff81111561124657611245610f0a565b5b61125284828501611161565b91505092915050565b61126481611024565b82525050565b600060208201905061127f600083018461125b565b92915050565b600080600080600060a086880312156112a1576112a0610f05565b5b60006112af88828901610f30565b955050602086013567ffffffffffffffff8111156112d0576112cf610f0a565b5b6112dc88828901611161565b945050604086013567ffffffffffffffff8111156112fd576112fc610f0a565b5b61130988828901611161565b935050606061131a88828901611045565b925050608086013567ffffffffffffffff81111561133b5761133a610f0a565b5b61134788828901611161565b9150509295509295909350565b60008060006060848603121561136d5761136c610f05565b5b600084013567ffffffffffffffff81111561138b5761138a610f0a565b5b61139786828701611161565b935050602084013567ffffffffffffffff8111156113b8576113b7610f0a565b5b6113c486828701611161565b92505060406113d586828701611045565b9150509250925092565b60008115159050919050565b6113f4816113df565b82525050565b600060208201905061140f60008301846113eb565b92915050565b61141e81610f0f565b82525050565b60006040820190506114396000830185611415565b818103602083015261144b8184610fc9565b90509392505050565b6000606082019050818103600083015261146e8186610fc9565b905081810360208301526114828185610fc9565b905081810360408301526114968184610fc9565b9050949350505050565b7f4e487b7100000000000000000000000000000000000000000000000000000000600052602260045260246000fd5b600060028204905060018216806114e757607f821691505b6020821081036114fa576114f96114a0565b5b50919050565b600082825260208201905092915050565b7f697373756572206973206e6f7420617574686f72697365640000000000000000600082015250565b6000611547601883611500565b915061155282611511565b602082019050919050565b600060208201905081810360008301526115768161153a565b9050919050565b600081905092915050565b600061159382610f72565b61159d818561157d565b93506115ad818560208601610f8e565b80840191505092915050565b60006115c58284611588565b915081905092915050565b60008190508160005260206000209050919050565b60006020601f8301049050919050565b600082821b905092915050565b6000600883026116327fffffffffffffffffffffffffffffffffffffffffffffffffffffffffffffffff826115f5565b61163c86836115f5565b95508019841693508086168417925050509392505050565b6000819050919050565b600061167961167461166f84610f0f565b611654565b610f0f565b9050919050565b6000819050919050565b6116938361165e565b6116a761169f82611680565b848454611602565b825550505050565b600090565b6116bc6116af565b6116c781848461168a565b505050565b5b818110156116eb576116e06000826116b4565b6001810190506116cd565b5050565b601f82111561173057611701816115d0565b61170a846115e5565b81016020851015611719578190505b61172d611725856115e5565b8301826116cc565b50505b505050565b600082821c905092915050565b600061175360001984600802611735565b1980831691505092915050565b600061176c8383611742565b9150826002028217905092915050565b61178582610f72565b67ffffffffffffffff81111561179e5761179d611064565b5b6117a882546114cf565b6117b38282856116ef565b600060209050601f8311600181146117e657600084156117d4578287015190505b6117de8582611760565b865550611846565b601f1984166117f4866115d0565b60005b8281101561181c578489015182556001820191506020850194506020810190506117f7565b868310156118395784890151611835601f891682611742565b8355505b6001600288020188555050505b505050505050565b60008151905061185d81610f19565b92915050565b60006020828403121561187957611878610f05565b5b60006118878482850161184e565b91505092915050565b6000815461189d816114cf565b6118a7818661157d565b945060018216600081146118c257600181146118d75761190a565b60ff198316865281151582028601935061190a565b6118e0856115d0565b60005b83811015611902578154818901526001820191506020810190506118e3565b838801955050505b50505092915050565b600061191f8285611890565b915061192b8284611588565b91508190509392505050565b60006119438285611588565b915061194f8284611588565b91508190509392505050565b600073ffffffffffffffffffffffffffffffffffffffff82169050919050565b60006119868261195b565b9050919050565b6119968161197b565b82525050565b60006020820190506119b1600083018461198d565b92915050565b6119c0816113df565b81146119cb57600080fd5b50565b6000815190506119dd816119b7565b92915050565b6000602082840312156119f9576119f8610f05565b5b6000611a07848285016119ce565b91505092915050565b600060ff82169050919050565b7f4e487b7100000000000000000000000000000000000000000000000000000000600052601160045260246000fd5b6000611a5782611a10565b9150611a6283611a10565b9250828201905060ff811115611a7b57611a7a611a1d565b5b92915050565b611a8a81611a10565b82525050565b6000608082019050611aa5600083018761125b565b611ab26020830186611a81565b611abf604083018561125b565b611acc606083018461125b565b9594505050505056fea264697066735822122056de1e06f67d0c887f9ff38de94bb1fd41b25b1e813c511c35d6309ca74f423264736f6c634300081c0033",
  "linkReferences": {},
  "deployedLinkReferences": {}
}