{
  "_format": "hh-sol-artifact-1",
  "contractName": "AdminAccounts",
  "sourceName": "contracts/AdminAccountRegistry.sol",
  "abi": [
    {
      "inputs": [
        {
          "internalType": "address",
          "name": "_newAdmin",
          "type": "address"
        }
      ],
      "name": "changeAdmin",
      "outputs": [],
      "stateMutability": "nonpayable",
      "type": "function"
    },
    {
      "inputs": [
        {
          "internalType": "address",
          "name": "_admin",
          "type": "address"
        }
      ],
      "name": "isAdmin",
      "outputs": [
        {
          "internalType": "bool",
          "name": "",
          "type": "bool"
        }
      ],
      "stateMutability": "view",
      "type": "function"
    },
    {
      "inputs": [],
      "name": "recoverAdmin",
      "outputs": [],
      "stateMutability": "nonpayable",
      "type": "function"
    },
    {
      "inputs": [],
      "name": "recoverAdminRequest",
      "outputs": [],
      "stateMutability": "nonpayable",
      "type": "function"
    },
    {
      "inputs": [],
      "name": "registerAdmin",
      "outputs": [],
      "stateMutability": "nonpayable",
      "type": "function"
    },
    {
      "inputs": [
        {
          "internalType": "uint256",
          "name": "_aThreshold",
          "type": "uint256"
        },
        {
          "internalType": "uint256",
          "name": "_uThreshold",
          "type": "uint256"
        },
        {
          "internalType": "address[]",
          "name": "_delegates",
          "type": "address[]"
        }
      ],
      "name": "setupDelegate",
      "outputs": [],
      "stateMutability": "nonpayable",
      "type": "function"
    }
  ],
  "bytecode": "0x6080604052348015600f57600080fd5b50610b878061001f6000396000f3fe608060405234801561001057600080fd5b50600436106100625760003560e01c806324d7806c146100675780635ab6f71b146100975780638f283970146100a1578063a93bdc8d146100bd578063c902e5a8146100d9578063e9a1f522146100e3575b600080fd5b610081600480360381019061007c9190610787565b6100ed565b60405161008e91906107cf565b60405180910390f35b61009f610155565b005b6100bb60048036038101906100b69190610787565b610197565b005b6100d760048036038101906100d29190610979565b610232565b005b6100e161037c565b005b6100eb6104d7565b005b60008173ffffffffffffffffffffffffffffffffffffffff1660008054906101000a900473ffffffffffffffffffffffffffffffffffffffff1673ffffffffffffffffffffffffffffffffffffffff160361014b5760019050610150565b600090505b919050565b336000806101000a81548173ffffffffffffffffffffffffffffffffffffffff021916908373ffffffffffffffffffffffffffffffffffffffff160217905550565b60008054906101000a900473ffffffffffffffffffffffffffffffffffffffff1673ffffffffffffffffffffffffffffffffffffffff163373ffffffffffffffffffffffffffffffffffffffff16146101ef57600080fd5b806000806101000a81548173ffffffffffffffffffffffffffffffffffffffff021916908373ffffffffffffffffffffffffffffffffffffffff16021790555050565b60011515600160149054906101000a900460ff16151514610288576040517f08c379a000000000000000000000000000000000000000000000000000000000815260040161027f90610a45565b60405180910390fd5b8051600281905550826005819055508160068190555080600390805190602001906102b492919061066e565b506000600460006101000a81548160ff02191690831515021790555060005b60025481101561035c576000600760008484815181106102f6576102f5610a65565b5b602002602001015173ffffffffffffffffffffffffffffffffffffffff1673ffffffffffffffffffffffffffffffffffffffff16815260200190815260200160002060006101000a81548160ff02191690831515021790555080806001019150506102d3565b5060018060146101000a81548160ff021916908315150217905550505050565b61038461058b565b156104d557600160009054906101000a900473ffffffffffffffffffffffffffffffffffffffff166000806101000a81548173ffffffffffffffffffffffffffffffffffffffff021916908373ffffffffffffffffffffffffffffffffffffffff160217905550600160006101000a81549073ffffffffffffffffffffffffffffffffffffffff02191690556000600460006101000a81548160ff02191690831515021790555060005b6002548110156104d35760001515600760006003848154811061045457610453610a65565b5b9060005260206000200160009054906101000a900473ffffffffffffffffffffffffffffffffffffffff1673ffffffffffffffffffffffffffffffffffffffff1673ffffffffffffffffffffffffffffffffffffffff16815260200190815260200160002060009054906101000a90505050808060010191505061042e565b505b565b60001515600460009054906101000a900460ff1615151461052d576040517f08c379a000000000000000000000000000000000000000000000000000000000815260040161052490610aba565b60405180910390fd5b33600160006101000a81548173ffffffffffffffffffffffffffffffffffffffff021916908373ffffffffffffffffffffffffffffffffffffffff1602179055506001600460006101000a81548160ff021916908315150217905550565b6000806000905060005b600254811015610651576001151560076000600384815481106105bb576105ba610a65565b5b9060005260206000200160009054906101000a900473ffffffffffffffffffffffffffffffffffffffff1673ffffffffffffffffffffffffffffffffffffffff1673ffffffffffffffffffffffffffffffffffffffff16815260200190815260200160002060009054906101000a900460ff1615150361064457818061064090610b09565b9250505b8080600101915050610595565b50600554811061066557600191505061066b565b60009150505b90565b8280548282559060005260206000209081019282156106e7579160200282015b828111156106e65782518260006101000a81548173ffffffffffffffffffffffffffffffffffffffff021916908373ffffffffffffffffffffffffffffffffffffffff1602179055509160200191906001019061068e565b5b5090506106f491906106f8565b5090565b5b808211156107115760008160009055506001016106f9565b5090565b6000604051905090565b600080fd5b600080fd5b600073ffffffffffffffffffffffffffffffffffffffff82169050919050565b600061075482610729565b9050919050565b61076481610749565b811461076f57600080fd5b50565b6000813590506107818161075b565b92915050565b60006020828403121561079d5761079c61071f565b5b60006107ab84828501610772565b91505092915050565b60008115159050919050565b6107c9816107b4565b82525050565b60006020820190506107e460008301846107c0565b92915050565b6000819050919050565b6107fd816107ea565b811461080857600080fd5b50565b60008135905061081a816107f4565b92915050565b600080fd5b6000601f19601f8301169050919050565b7f4e487b7100000000000000000000000000000000000000000000000000000000600052604160045260246000fd5b61086e82610825565b810181811067ffffffffffffffff8211171561088d5761088c610836565b5b80604052505050565b60006108a0610715565b90506108ac8282610865565b919050565b600067ffffffffffffffff8211156108cc576108cb610836565b5b602082029050602081019050919050565b600080fd5b60006108f56108f0846108b1565b610896565b90508083825260208201905060208402830185811115610918576109176108dd565b5b835b81811015610941578061092d8882610772565b84526020840193505060208101905061091a565b5050509392505050565b600082601f8301126109605761095f610820565b5b81356109708482602086016108e2565b91505092915050565b6000806000606084860312156109925761099161071f565b5b60006109a08682870161080b565b93505060206109b18682870161080b565b925050604084013567ffffffffffffffff8111156109d2576109d1610724565b5b6109de8682870161094b565b9150509250925092565b600082825260208201905092915050565b7f5468652064656c656761746520616c7265616479207365742075700000000000600082015250565b6000610a2f601b836109e8565b9150610a3a826109f9565b602082019050919050565b60006020820190508181036000830152610a5e81610a22565b9050919050565b7f4e487b7100000000000000000000000000000000000000000000000000000000600052603260045260246000fd5b50565b6000610aa46000836109e8565b9150610aaf82610a94565b600082019050919050565b60006020820190508181036000830152610ad381610a97565b9050919050565b7f4e487b7100000000000000000000000000000000000000000000000000000000600052601160045260246000fd5b6000610b14826107ea565b91507fffffffffffffffffffffffffffffffffffffffffffffffffffffffffffffffff8203610b4657610b45610ada565b5b60018201905091905056fea2646970667358221220eccc6659ff23488e0a0cad75a414c895d329a10c389d362e5eba8a2463ee616964736f6c634300081c0033",
  "linkReferences": {},
  "deployedLinkReferences": {}
}