{
  "_format": "hh-sol-artifact-1",
  "contractName": "Credentials",
  "sourceName": "contracts/CredentialRegistry.sol",
  "abi": [
    {
      "inputs": [
        {
          "internalType": "string",
          "name": "_id",
          "type": "string"
        },
        {
          "internalType": "string",
          "name": "_issuer",
          "type": "string"
        },
        {
          "internalType": "string",
          "name": "_holder",
          "type": "string"
        },
        {
          "internalType": "string",
          "name": "_credHash",
          "type": "string"
        },
        {
          "internalType": "string",
          "name": "_signature",
          "type": "string"
        },
        {
          "internalType": "uint256",
          "name": "_validity",
          "type": "uint256"
        },
        {
          "internalType": "uint256",
          "name": "_epoch",
          "type": "uint256"
        }
      ],
      "name": "addCredential",
      "outputs": [],
      "stateMutability": "nonpayable",
      "type": "function"
    },
    {
      "inputs": [
        {
          "internalType": "string",
          "name": "_id",
          "type": "string"
        }
      ],
      "name": "getCredential",
      "outputs": [
        {
          "internalType": "string",
          "name": "",
          "type": "string"
        },
        {
          "internalType": "string",
          "name": "",
          "type": "string"
        },
        {
          "internalType": "string",
          "name": "",
          "type": "string"
        },
        {
          "internalType": "string",
          "name": "",
          "type": "string"
        }
      ],
      "stateMutability": "view",
      "type": "function"
    }
  ],
  "bytecode": "0x6080604052348015600f57600080fd5b50610cfc8061001f6000396000f3fe608060405234801561001057600080fd5b50600436106100365760003560e01c806371ecc6791461003b578063d091187f14610057575b600080fd5b610055600480360381019061005091906106d2565b61008a565b005b610071600480360381019061006c9190610800565b610279565b60405161008194939291906108c8565b60405180910390f35b6000151560038860405161009e9190610965565b908152602001604051809103902060070160009054906101000a900460ff161515146100ff576040517f08c379a00000000000000000000000000000000000000000000000000000000081526004016100f6906109c8565b60405180910390fd5b866003886040516101109190610965565b9081526020016040518091039020600001908161012d9190610bf4565b508560038860405161013f9190610965565b9081526020016040518091039020600101908161015c9190610bf4565b508460038860405161016e9190610965565b9081526020016040518091039020600201908161018b9190610bf4565b508360038860405161019d9190610965565b908152602001604051809103902060030190816101ba9190610bf4565b50826003886040516101cc9190610965565b908152602001604051809103902060040190816101e99190610bf4565b50816003886040516101fb9190610965565b908152602001604051809103902060050181905550806003886040516102219190610965565b90815260200160405180910390206006018190555060016003886040516102489190610965565b908152602001604051809103902060070160006101000a81548160ff02191690831515021790555050505050505050565b60608060608060038560405161028f9190610965565b90815260200160405180910390206001016003866040516102b09190610965565b90815260200160405180910390206002016003876040516102d19190610965565b90815260200160405180910390206003016003886040516102f29190610965565b908152602001604051809103902060040183805461030f90610a17565b80601f016020809104026020016040519081016040528092919081815260200182805461033b90610a17565b80156103885780601f1061035d57610100808354040283529160200191610388565b820191906000526020600020905b81548152906001019060200180831161036b57829003601f168201915b5050505050935082805461039b90610a17565b80601f01602080910402602001604051908101604052809291908181526020018280546103c790610a17565b80156104145780601f106103e957610100808354040283529160200191610414565b820191906000526020600020905b8154815290600101906020018083116103f757829003601f168201915b5050505050925081805461042790610a17565b80601f016020809104026020016040519081016040528092919081815260200182805461045390610a17565b80156104a05780601f10610475576101008083540402835291602001916104a0565b820191906000526020600020905b81548152906001019060200180831161048357829003601f168201915b505050505091508080546104b390610a17565b80601f01602080910402602001604051908101604052809291908181526020018280546104df90610a17565b801561052c5780601f106105015761010080835404028352916020019161052c565b820191906000526020600020905b81548152906001019060200180831161050f57829003601f168201915b5050505050905093509350935093509193509193565b6000604051905090565b600080fd5b600080fd5b600080fd5b600080fd5b6000601f19601f8301169050919050565b7f4e487b7100000000000000000000000000000000000000000000000000000000600052604160045260246000fd5b6105a982610560565b810181811067ffffffffffffffff821117156105c8576105c7610571565b5b80604052505050565b60006105db610542565b90506105e782826105a0565b919050565b600067ffffffffffffffff82111561060757610606610571565b5b61061082610560565b9050602081019050919050565b82818337600083830152505050565b600061063f61063a846105ec565b6105d1565b90508281526020810184848401111561065b5761065a61055b565b5b61066684828561061d565b509392505050565b600082601f83011261068357610682610556565b5b813561069384826020860161062c565b91505092915050565b6000819050919050565b6106af8161069c565b81146106ba57600080fd5b50565b6000813590506106cc816106a6565b92915050565b600080600080600080600060e0888a0312156106f1576106f061054c565b5b600088013567ffffffffffffffff81111561070f5761070e610551565b5b61071b8a828b0161066e565b975050602088013567ffffffffffffffff81111561073c5761073b610551565b5b6107488a828b0161066e565b965050604088013567ffffffffffffffff81111561076957610768610551565b5b6107758a828b0161066e565b955050606088013567ffffffffffffffff81111561079657610795610551565b5b6107a28a828b0161066e565b945050608088013567ffffffffffffffff8111156107c3576107c2610551565b5b6107cf8a828b0161066e565b93505060a06107e08a828b016106bd565b92505060c06107f18a828b016106bd565b91505092959891949750929550565b6000602082840312156108165761081561054c565b5b600082013567ffffffffffffffff81111561083457610833610551565b5b6108408482850161066e565b91505092915050565b600081519050919050565b600082825260208201905092915050565b60005b83811015610883578082015181840152602081019050610868565b60008484015250505050565b600061089a82610849565b6108a48185610854565b93506108b4818560208601610865565b6108bd81610560565b840191505092915050565b600060808201905081810360008301526108e2818761088f565b905081810360208301526108f6818661088f565b9050818103604083015261090a818561088f565b9050818103606083015261091e818461088f565b905095945050505050565b600081905092915050565b600061093f82610849565b6109498185610929565b9350610959818560208601610865565b80840191505092915050565b60006109718284610934565b915081905092915050565b7f63726564656e7469616c20616c72656164792065786973747300000000000000600082015250565b60006109b2601983610854565b91506109bd8261097c565b602082019050919050565b600060208201905081810360008301526109e1816109a5565b9050919050565b7f4e487b7100000000000000000000000000000000000000000000000000000000600052602260045260246000fd5b60006002820490506001821680610a2f57607f821691505b602082108103610a4257610a416109e8565b5b50919050565b60008190508160005260206000209050919050565b60006020601f8301049050919050565b600082821b905092915050565b600060088302610aaa7fffffffffffffffffffffffffffffffffffffffffffffffffffffffffffffffff82610a6d565b610ab48683610a6d565b95508019841693508086168417925050509392505050565b6000819050919050565b6000610af1610aec610ae78461069c565b610acc565b61069c565b9050919050565b6000819050919050565b610b0b83610ad6565b610b1f610b1782610af8565b848454610a7a565b825550505050565b600090565b610b34610b27565b610b3f818484610b02565b505050565b5b81811015610b6357610b58600082610b2c565b600181019050610b45565b5050565b601f821115610ba857610b7981610a48565b610b8284610a5d565b81016020851015610b91578190505b610ba5610b9d85610a5d565b830182610b44565b50505b505050565b600082821c905092915050565b6000610bcb60001984600802610bad565b1980831691505092915050565b6000610be48383610bba565b9150826002028217905092915050565b610bfd82610849565b67ffffffffffffffff811115610c1657610c15610571565b5b610c208254610a17565b610c2b828285610b67565b600060209050601f831160018114610c5e5760008415610c4c578287015190505b610c568582610bd8565b865550610cbe565b601f198416610c6c86610a48565b60005b82811015610c9457848901518255600182019150602085019450602081019050610c6f565b86831015610cb15784890151610cad601f891682610bba565b8355505b6001600288020188555050505b50505050505056fea26469706673582212208e03622d0bf6a351c66a9a5ca9cee0f161bccae894abf9a6b3d8eb1a2b12bd3964736f6c634300081c0033",
  "linkReferences": {},
  "deployedLinkReferences": {}
}