{
  "_format": "hh-sol-artifact-1",
  "contractName": "DID",
  "sourceName": "contracts/DIDRegistry.sol",
  "abi": [
    {
      "inputs": [
        {
          "internalType": "address",
          "name": "_id",
          "type": "address"
        },
        {
          "internalType": "string",
          "name": "_delegate",
          "type": "string"
        }
      ],
      "name": "addDelegate",
      "outputs": [],
      "stateMutability": "nonpayable",
      "type": "function"
    },
    {
      "inputs": [
        {
          "internalType": "address",
          "name": "_id",
          "type": "address"
        },
        {
          "internalType": "address",
          "name": "_controller",
          "type": "address"
        },
        {
          "internalType": "address",
          "name": "_keyValue",
          "type": "address"
        }
      ],
      "name": "addPublicKey",
      "outputs": [],
      "stateMutability": "nonpayable",
      "type": "function"
    },
    {
      "inputs": [
        {
          "internalType": "address",
          "name": "_id",
          "type": "address"
        },
        {
          "internalType": "string",
          "name": "_type",
          "type": "string"
        },
        {
          "internalType": "string",
          "name": "_url",
          "type": "string"
        }
      ],
      "name": "addServicePoint",
      "outputs": [],
      "stateMutability": "nonpayable",
      "type": "function"
    },
    {
      "inputs": [
        {
          "internalType": "address",
          "name": "_id",
          "type": "address"
        }
      ],
      "name": "getDID",
      "outputs": [
        {
          "internalType": "string",
          "name": "",
          "type": "string"
        }
      ],
      "stateMutability": "view",
      "type": "function"
    },
    {
      "inputs": [
        {
          "internalType": "address",
          "name": "_id",
          "type": "address"
        }
      ],
      "name": "getInfo",
      "outputs": [
        {
          "internalType": "string",
          "name": "",
          "type": "string"
        },
        {
          "internalType": "uint256",
          "name": "",
          "type": "uint256"
        },
        {
          "internalType": "uint256",
          "name": "",
          "type": "uint256"
        }
      ],
      "stateMutability": "view",
      "type": "function"
    },
    {
      "inputs": [
        {
          "internalType": "address",
          "name": "_id",
          "type": "address"
        },
        {
          "internalType": "uint256",
          "name": "_item",
          "type": "uint256"
        }
      ],
      "name": "getPublicKey",
      "outputs": [
        {
          "internalType": "uint256",
          "name": "",
          "type": "uint256"
        },
        {
          "internalType": "address",
          "name": "",
          "type": "address"
        },
        {
          "internalType": "address",
          "name": "",
          "type": "address"
        }
      ],
      "stateMutability": "view",
      "type": "function"
    },
    {
      "inputs": [
        {
          "internalType": "address",
          "name": "_id",
          "type": "address"
        },
        {
          "internalType": "uint256",
          "name": "_item",
          "type": "uint256"
        }
      ],
      "name": "getServicePoint",
      "outputs": [
        {
          "internalType": "uint256",
          "name": "",
          "type": "uint256"
        },
        {
          "internalType": "string",
          "name": "",
          "type": "string"
        },
        {
          "internalType": "string",
          "name": "",
          "type": "string"
        }
      ],
      "stateMutability": "view",
      "type": "function"
    },
    {
      "inputs": [
        {
          "internalType": "address",
          "name": "_id",
          "type": "address"
        }
      ],
      "name": "recoverAdmin",
      "outputs": [],
      "stateMutability": "nonpayable",
      "type": "function"
    },
    {
      "inputs": [
        {
          "internalType": "address",
          "name": "_id",
          "type": "address"
        }
      ],
      "name": "recoverDID",
      "outputs": [],
      "stateMutability": "nonpayable",
      "type": "function"
    },
    {
      "inputs": [
        {
          "internalType": "address",
          "name": "_id",
          "type": "address"
        },
        {
          "internalType": "string",
          "name": "_did",
          "type": "string"
        }
      ],
      "name": "register",
      "outputs": [],
      "stateMutability": "nonpayable",
      "type": "function"
    },
    {
      "inputs": [
        {
          "internalType": "address",
          "name": "_id",
          "type": "address"
        },
        {
          "internalType": "uint256",
          "name": "_item",
          "type": "uint256"
        }
      ],
      "name": "removePublicKey",
      "outputs": [],
      "stateMutability": "nonpayable",
      "type": "function"
    },
    {
      "inputs": [
        {
          "internalType": "address",
          "name": "_id",
          "type": "address"
        },
        {
          "internalType": "uint256",
          "name": "_item",
          "type": "uint256"
        }
      ],
      "name": "removeServicePoint",
      "outputs": [],
      "stateMutability": "nonpayable",
      "type": "function"
    },
    {
      "inputs": [
        {
          "internalType": "address",
          "name": "_id",
          "type": "address"
        }
      ],
      "name": "revokeIdentity",
      "outputs": [],
      "stateMutability": "nonpayable",
      "type": "function"
    },
    {
      "inputs": [
        {
          "internalType": "address",
          "name": "_id",
          "type": "address"
        },
        {
          "internalType": "uint256",
          "name": "_aThreshold",
          "type": "uint256"
        },
        {
          "internalType": "uint256",
          "name": "_uThreshold",
          "type": "uint256"
        }
      ],
      "name": "setupDelegate",
      "outputs": [],
      "stateMutability": "nonpayable",
      "type": "function"
    },
    {
      "inputs": [
        {
          "internalType": "address",
          "name": "_id",
          "type": "address"
        }
      ],
      "name": "vote",
      "outputs": [],
      "stateMutability": "nonpayable",
      "type": "function"
    }
  ],
  "bytecode": "0x6080604052348015600f57600080fd5b506135cf8061001f6000396000f3fe608060405234801561001057600080fd5b50600436106100f55760003560e01c80636dd7d8ea11610097578063c514a54a11610066578063c514a54a14610244578063f64e30b014610260578063fbde75ef14610290578063ffdd5cf1146102c2576100f5565b80636dd7d8ea146101be57806385d3f5ae146101da578063a2b1c1611461020c578063b1ff3ac514610228576100f5565b806332434a2e116100d357806332434a2e1461014e57806356dcb58d1461016a5780635745a7051461018657806360ec1f8d146101a2576100f5565b80630221f191146100fa5780630ebddd17146101165780631267c8a214610132575b600080fd5b610114600480360381019061010f91906128d2565b6102f4565b005b610130600480360381019061012b9190612925565b610558565b005b61014c60048036038101906101479190612a98565b6107cb565b005b61016860048036038101906101639190612b23565b610ae6565b005b610184600480360381019061017f9190612b23565b610e9e565b005b6101a0600480360381019061019b9190612b7f565b611021565b005b6101bc60048036038101906101b79190612bd2565b61140d565b005b6101d860048036038101906101d39190612925565b611806565b005b6101f460048036038101906101ef9190612bd2565b6118bf565b60405161020393929190612c30565b60405180910390f35b61022660048036038101906102219190612925565b611a13565b005b610242600480360381019061023d9190612925565b611cf0565b005b61025e60048036038101906102599190612bd2565b611e62565b005b61027a60048036038101906102759190612925565b612189565b6040516102879190612ce6565b60405180910390f35b6102aa60048036038101906102a59190612bd2565b61225c565b6040516102b993929190612d08565b60405180910390f35b6102dc60048036038101906102d79190612925565b612486565b6040516102eb93929190612d4d565b60405180910390f35b600015156000808573ffffffffffffffffffffffffffffffffffffffff1673ffffffffffffffffffffffffffffffffffffffff16815260200190815260200160002060080160019054906101000a900460ff16151514610389576040517f08c379a000000000000000000000000000000000000000000000000000000000815260040161038090612dd7565b60405180910390fd5b816000808573ffffffffffffffffffffffffffffffffffffffff1673ffffffffffffffffffffffffffffffffffffffff168152602001908152602001600020600b0181905550806000808573ffffffffffffffffffffffffffffffffffffffff1673ffffffffffffffffffffffffffffffffffffffff168152602001908152602001600020600c018190555060008060008573ffffffffffffffffffffffffffffffffffffffff1673ffffffffffffffffffffffffffffffffffffffff16815260200190815260200160002060080160006101000a81548160ff0219169083151502179055506000808473ffffffffffffffffffffffffffffffffffffffff1673ffffffffffffffffffffffffffffffffffffffff168152602001908152602001600020600901805490506000808573ffffffffffffffffffffffffffffffffffffffff1673ffffffffffffffffffffffffffffffffffffffff168152602001908152602001600020600a018190555060016000808573ffffffffffffffffffffffffffffffffffffffff1673ffffffffffffffffffffffffffffffffffffffff16815260200190815260200160002060080160016101000a81548160ff021916908315150217905550505050565b806000808273ffffffffffffffffffffffffffffffffffffffff1673ffffffffffffffffffffffffffffffffffffffff16815260200190815260200160002060010160009054906101000a900473ffffffffffffffffffffffffffffffffffffffff1673ffffffffffffffffffffffffffffffffffffffff163373ffffffffffffffffffffffffffffffffffffffff16146105f257600080fd5b6000808373ffffffffffffffffffffffffffffffffffffffff1673ffffffffffffffffffffffffffffffffffffffff168152602001908152602001600020600080820160006101000a81549073ffffffffffffffffffffffffffffffffffffffff02191690556001820160006101000a81549073ffffffffffffffffffffffffffffffffffffffff02191690556002820160006101000a81549073ffffffffffffffffffffffffffffffffffffffff02191690556003820160006106b69190612788565b600482016000905560068201600090556008820160006101000a81549060ff02191690556008820160016101000a81549060ff02191690556009820160006106fe91906127c8565b600a820160009055600b820160009055600c820160009055505060018060008473ffffffffffffffffffffffffffffffffffffffff1673ffffffffffffffffffffffffffffffffffffffff16815260200190815260200160002060006101000a81548160ff0219169083151502179055506001600260008473ffffffffffffffffffffffffffffffffffffffff1673ffffffffffffffffffffffffffffffffffffffff16815260200190815260200160002060006101000a81548160ff0219169083151502179055505050565b826000808273ffffffffffffffffffffffffffffffffffffffff1673ffffffffffffffffffffffffffffffffffffffff16815260200190815260200160002060010160009054906101000a900473ffffffffffffffffffffffffffffffffffffffff1673ffffffffffffffffffffffffffffffffffffffff163373ffffffffffffffffffffffffffffffffffffffff161461086557600080fd5b6000808573ffffffffffffffffffffffffffffffffffffffff1673ffffffffffffffffffffffffffffffffffffffff16815260200190815260200160002060060160008154809291906108b790612e26565b91905055506000808573ffffffffffffffffffffffffffffffffffffffff1673ffffffffffffffffffffffffffffffffffffffff168152602001908152602001600020600601546000808673ffffffffffffffffffffffffffffffffffffffff1673ffffffffffffffffffffffffffffffffffffffff16815260200190815260200160002060070160008060008873ffffffffffffffffffffffffffffffffffffffff1673ffffffffffffffffffffffffffffffffffffffff16815260200190815260200160002060060154815260200190815260200160002060000181905550826000808673ffffffffffffffffffffffffffffffffffffffff1673ffffffffffffffffffffffffffffffffffffffff16815260200190815260200160002060070160008060008873ffffffffffffffffffffffffffffffffffffffff1673ffffffffffffffffffffffffffffffffffffffff1681526020019081526020016000206006015481526020019081526020016000206001019081610a3b919061307a565b50816000808673ffffffffffffffffffffffffffffffffffffffff1673ffffffffffffffffffffffffffffffffffffffff16815260200190815260200160002060070160008060008873ffffffffffffffffffffffffffffffffffffffff1673ffffffffffffffffffffffffffffffffffffffff1681526020019081526020016000206006015481526020019081526020016000206002019081610adf919061307a565b5050505050565b60001515600160008473ffffffffffffffffffffffffffffffffffffffff1673ffffffffffffffffffffffffffffffffffffffff16815260200190815260200160002060009054906101000a900460ff16151514610b79576040517f08c379a0000000000000000000000000000000000000000000000000000000008152600401610b7090613198565b60405180910390fd5b60001515600260008473ffffffffffffffffffffffffffffffffffffffff1673ffffffffffffffffffffffffffffffffffffffff16815260200190815260200160002060009054906101000a900460ff16151514610c0c576040517f08c379a0000000000000000000000000000000000000000000000000000000008152600401610c039061322a565b60405180910390fd5b60018060008473ffffffffffffffffffffffffffffffffffffffff1673ffffffffffffffffffffffffffffffffffffffff16815260200190815260200160002060006101000a81548160ff021916908315150217905550816000808473ffffffffffffffffffffffffffffffffffffffff1673ffffffffffffffffffffffffffffffffffffffff16815260200190815260200160002060000160006101000a81548173ffffffffffffffffffffffffffffffffffffffff021916908373ffffffffffffffffffffffffffffffffffffffff160217905550336000808473ffffffffffffffffffffffffffffffffffffffff1673ffffffffffffffffffffffffffffffffffffffff16815260200190815260200160002060010160006101000a81548173ffffffffffffffffffffffffffffffffffffffff021916908373ffffffffffffffffffffffffffffffffffffffff160217905550806000808473ffffffffffffffffffffffffffffffffffffffff1673ffffffffffffffffffffffffffffffffffffffff1681526020019081526020016000206003019081610db1919061307a565b5060008060008473ffffffffffffffffffffffffffffffffffffffff1673ffffffffffffffffffffffffffffffffffffffff16815260200190815260200160002060080160016101000a81548160ff02191690831515021790555060008060008473ffffffffffffffffffffffffffffffffffffffff1673ffffffffffffffffffffffffffffffffffffffff1681526020019081526020016000206004018190555060008060008473ffffffffffffffffffffffffffffffffffffffff1673ffffffffffffffffffffffffffffffffffffffff168152602001908152602001600020600601819055505050565b600015156000808473ffffffffffffffffffffffffffffffffffffffff1673ffffffffffffffffffffffffffffffffffffffff16815260200190815260200160002060080160019054906101000a900460ff16151514610f33576040517f08c379a0000000000000000000000000000000000000000000000000000000008152600401610f2a90612dd7565b60405180910390fd5b6000808373ffffffffffffffffffffffffffffffffffffffff1673ffffffffffffffffffffffffffffffffffffffff16815260200190815260200160002060090181908060018154018082558091505060019003906000526020600020016000909190919091509081610fa6919061307a565b5060008060008473ffffffffffffffffffffffffffffffffffffffff1673ffffffffffffffffffffffffffffffffffffffff168152602001908152602001600020600d0182604051610ff89190613286565b908152602001604051809103902060006101000a81548160ff0219169083151502179055505050565b826000808273ffffffffffffffffffffffffffffffffffffffff1673ffffffffffffffffffffffffffffffffffffffff16815260200190815260200160002060010160009054906101000a900473ffffffffffffffffffffffffffffffffffffffff1673ffffffffffffffffffffffffffffffffffffffff163373ffffffffffffffffffffffffffffffffffffffff16146110bb57600080fd5b600073ffffffffffffffffffffffffffffffffffffffff168273ffffffffffffffffffffffffffffffffffffffff160361112a576040517f08c379a0000000000000000000000000000000000000000000000000000000008152600401611121906132e9565b60405180910390fd5b6000808573ffffffffffffffffffffffffffffffffffffffff1673ffffffffffffffffffffffffffffffffffffffff168152602001908152602001600020600401600081548092919061117c90612e26565b91905055506000808573ffffffffffffffffffffffffffffffffffffffff1673ffffffffffffffffffffffffffffffffffffffff168152602001908152602001600020600401546000808673ffffffffffffffffffffffffffffffffffffffff1673ffffffffffffffffffffffffffffffffffffffff16815260200190815260200160002060050160008060008873ffffffffffffffffffffffffffffffffffffffff1673ffffffffffffffffffffffffffffffffffffffff16815260200190815260200160002060040154815260200190815260200160002060000181905550826000808673ffffffffffffffffffffffffffffffffffffffff1673ffffffffffffffffffffffffffffffffffffffff16815260200190815260200160002060050160008060008873ffffffffffffffffffffffffffffffffffffffff1673ffffffffffffffffffffffffffffffffffffffff16815260200190815260200160002060040154815260200190815260200160002060010160006101000a81548173ffffffffffffffffffffffffffffffffffffffff021916908373ffffffffffffffffffffffffffffffffffffffff160217905550816000808673ffffffffffffffffffffffffffffffffffffffff1673ffffffffffffffffffffffffffffffffffffffff16815260200190815260200160002060050160008060008873ffffffffffffffffffffffffffffffffffffffff1673ffffffffffffffffffffffffffffffffffffffff16815260200190815260200160002060040154815260200190815260200160002060020160006101000a81548173ffffffffffffffffffffffffffffffffffffffff021916908373ffffffffffffffffffffffffffffffffffffffff16021790555050505050565b816000808273ffffffffffffffffffffffffffffffffffffffff1673ffffffffffffffffffffffffffffffffffffffff16815260200190815260200160002060010160009054906101000a900473ffffffffffffffffffffffffffffffffffffffff1673ffffffffffffffffffffffffffffffffffffffff163373ffffffffffffffffffffffffffffffffffffffff16146114a757600080fd5b6000808473ffffffffffffffffffffffffffffffffffffffff1673ffffffffffffffffffffffffffffffffffffffff16815260200190815260200160002060040160008154809291906114f990613309565b919050555060008290505b6000808573ffffffffffffffffffffffffffffffffffffffff1673ffffffffffffffffffffffffffffffffffffffff168152602001908152602001600020600401548111611755576000808573ffffffffffffffffffffffffffffffffffffffff1673ffffffffffffffffffffffffffffffffffffffff168152602001908152602001600020600501600060018361159c9190613332565b81526020019081526020016000206000808673ffffffffffffffffffffffffffffffffffffffff1673ffffffffffffffffffffffffffffffffffffffff1681526020019081526020016000206005016000838152602001908152602001600020600082015481600001556001820160009054906101000a900473ffffffffffffffffffffffffffffffffffffffff168160010160006101000a81548173ffffffffffffffffffffffffffffffffffffffff021916908373ffffffffffffffffffffffffffffffffffffffff1602179055506002820160009054906101000a900473ffffffffffffffffffffffffffffffffffffffff168160020160006101000a81548173ffffffffffffffffffffffffffffffffffffffff021916908373ffffffffffffffffffffffffffffffffffffffff1602179055509050506000808573ffffffffffffffffffffffffffffffffffffffff1673ffffffffffffffffffffffffffffffffffffffff1681526020019081526020016000206005016000828152602001908152602001600020600001600081548092919061173d90613309565b9190505550808061174d90612e26565b915050611504565b506000808473ffffffffffffffffffffffffffffffffffffffff1673ffffffffffffffffffffffffffffffffffffffff16815260200190815260200160002060050160008381526020019081526020016000206000808201600090556001820160006101000a81549073ffffffffffffffffffffffffffffffffffffffff02191690556002820160006101000a81549073ffffffffffffffffffffffffffffffffffffffff02191690555050505050565b60016000808373ffffffffffffffffffffffffffffffffffffffff1673ffffffffffffffffffffffffffffffffffffffff168152602001908152602001600020600d016000803373ffffffffffffffffffffffffffffffffffffffff1673ffffffffffffffffffffffffffffffffffffffff16815260200190815260200160002060030160405161189791906133e9565b908152602001604051809103902060006101000a81548160ff02191690831515021790555050565b60008060008060008673ffffffffffffffffffffffffffffffffffffffff1673ffffffffffffffffffffffffffffffffffffffff1681526020019081526020016000206005016000858152602001908152602001600020600001546000808773ffffffffffffffffffffffffffffffffffffffff1673ffffffffffffffffffffffffffffffffffffffff168152602001908152602001600020600501600086815260200190815260200160002060010160009054906101000a900473ffffffffffffffffffffffffffffffffffffffff166000808873ffffffffffffffffffffffffffffffffffffffff1673ffffffffffffffffffffffffffffffffffffffff168152602001908152602001600020600501600087815260200190815260200160002060020160009054906101000a900473ffffffffffffffffffffffffffffffffffffffff169250925092509250925092565b611a1c816125e9565b15611ced576000808273ffffffffffffffffffffffffffffffffffffffff1673ffffffffffffffffffffffffffffffffffffffff16815260200190815260200160002060020160009054906101000a900473ffffffffffffffffffffffffffffffffffffffff166000808373ffffffffffffffffffffffffffffffffffffffff1673ffffffffffffffffffffffffffffffffffffffff16815260200190815260200160002060010160006101000a81548173ffffffffffffffffffffffffffffffffffffffff021916908373ffffffffffffffffffffffffffffffffffffffff1602179055506000808273ffffffffffffffffffffffffffffffffffffffff1673ffffffffffffffffffffffffffffffffffffffff16815260200190815260200160002060020160006101000a81549073ffffffffffffffffffffffffffffffffffffffff021916905560008060008373ffffffffffffffffffffffffffffffffffffffff1673ffffffffffffffffffffffffffffffffffffffff16815260200190815260200160002060080160006101000a81548160ff02191690831515021790555060005b6000808373ffffffffffffffffffffffffffffffffffffffff1673ffffffffffffffffffffffffffffffffffffffff168152602001908152602001600020600a0154811015611ceb5760008060008473ffffffffffffffffffffffffffffffffffffffff1673ffffffffffffffffffffffffffffffffffffffff168152602001908152602001600020600d016000808573ffffffffffffffffffffffffffffffffffffffff1673ffffffffffffffffffffffffffffffffffffffff1681526020019081526020016000206009018381548110611ca257611ca1613400565b5b90600052602060002001604051611cb991906133e9565b908152602001604051809103902060006101000a81548160ff0219169083151502179055508080600101915050611bc3565b505b50565b600015156000808373ffffffffffffffffffffffffffffffffffffffff1673ffffffffffffffffffffffffffffffffffffffff16815260200190815260200160002060080160009054906101000a900460ff16151514611d85576040517f08c379a0000000000000000000000000000000000000000000000000000000008152600401611d7c9061347b565b60405180910390fd5b336000808373ffffffffffffffffffffffffffffffffffffffff1673ffffffffffffffffffffffffffffffffffffffff16815260200190815260200160002060020160006101000a81548173ffffffffffffffffffffffffffffffffffffffff021916908373ffffffffffffffffffffffffffffffffffffffff16021790555060016000808373ffffffffffffffffffffffffffffffffffffffff1673ffffffffffffffffffffffffffffffffffffffff16815260200190815260200160002060080160006101000a81548160ff02191690831515021790555050565b816000808273ffffffffffffffffffffffffffffffffffffffff1673ffffffffffffffffffffffffffffffffffffffff16815260200190815260200160002060010160009054906101000a900473ffffffffffffffffffffffffffffffffffffffff1673ffffffffffffffffffffffffffffffffffffffff163373ffffffffffffffffffffffffffffffffffffffff1614611efc57600080fd5b6000808473ffffffffffffffffffffffffffffffffffffffff1673ffffffffffffffffffffffffffffffffffffffff1681526020019081526020016000206006016000815480929190611f4e90613309565b919050555060008290505b6000808573ffffffffffffffffffffffffffffffffffffffff1673ffffffffffffffffffffffffffffffffffffffff168152602001908152602001600020600601548111612106576000808573ffffffffffffffffffffffffffffffffffffffff1673ffffffffffffffffffffffffffffffffffffffff1681526020019081526020016000206007016000600183611ff19190613332565b81526020019081526020016000206000808673ffffffffffffffffffffffffffffffffffffffff1673ffffffffffffffffffffffffffffffffffffffff1681526020019081526020016000206007016000838152602001908152602001600020600082015481600001556001820181600101908161206f91906134b1565b506002820181600201908161208491906134b1565b509050506000808573ffffffffffffffffffffffffffffffffffffffff1673ffffffffffffffffffffffffffffffffffffffff168152602001908152602001600020600701600082815260200190815260200160002060000160008154809291906120ee90613309565b919050555080806120fe90612e26565b915050611f59565b506000808473ffffffffffffffffffffffffffffffffffffffff1673ffffffffffffffffffffffffffffffffffffffff16815260200190815260200160002060070160008381526020019081526020016000206000808201600090556001820160006121729190612788565b6002820160006121829190612788565b5050505050565b60606000808373ffffffffffffffffffffffffffffffffffffffff1673ffffffffffffffffffffffffffffffffffffffff16815260200190815260200160002060030180546121d790612e9d565b80601f016020809104026020016040519081016040528092919081815260200182805461220390612e9d565b80156122505780601f1061222557610100808354040283529160200191612250565b820191906000526020600020905b81548152906001019060200180831161223357829003601f168201915b50505050509050919050565b60006060806000808673ffffffffffffffffffffffffffffffffffffffff1673ffffffffffffffffffffffffffffffffffffffff1681526020019081526020016000206007016000858152602001908152602001600020600001546000808773ffffffffffffffffffffffffffffffffffffffff1673ffffffffffffffffffffffffffffffffffffffff16815260200190815260200160002060070160008681526020019081526020016000206001016000808873ffffffffffffffffffffffffffffffffffffffff1673ffffffffffffffffffffffffffffffffffffffff168152602001908152602001600020600701600087815260200190815260200160002060020181805461236d90612e9d565b80601f016020809104026020016040519081016040528092919081815260200182805461239990612e9d565b80156123e65780601f106123bb576101008083540402835291602001916123e6565b820191906000526020600020905b8154815290600101906020018083116123c957829003601f168201915b505050505091508080546123f990612e9d565b80601f016020809104026020016040519081016040528092919081815260200182805461242590612e9d565b80156124725780601f1061244757610100808354040283529160200191612472565b820191906000526020600020905b81548152906001019060200180831161245557829003601f168201915b505050505090509250925092509250925092565b60606000806000808573ffffffffffffffffffffffffffffffffffffffff1673ffffffffffffffffffffffffffffffffffffffff1681526020019081526020016000206003016000808673ffffffffffffffffffffffffffffffffffffffff1673ffffffffffffffffffffffffffffffffffffffff168152602001908152602001600020600401546000808773ffffffffffffffffffffffffffffffffffffffff1673ffffffffffffffffffffffffffffffffffffffff1681526020019081526020016000206006015482805461255c90612e9d565b80601f016020809104026020016040519081016040528092919081815260200182805461258890612e9d565b80156125d55780601f106125aa576101008083540402835291602001916125d5565b820191906000526020600020905b8154815290600101906020018083116125b857829003601f168201915b505050505092509250925092509193909250565b6000806000905060005b6000808573ffffffffffffffffffffffffffffffffffffffff1673ffffffffffffffffffffffffffffffffffffffff168152602001908152602001600020600a015481101561272a57600115156000808673ffffffffffffffffffffffffffffffffffffffff1673ffffffffffffffffffffffffffffffffffffffff168152602001908152602001600020600d016000808773ffffffffffffffffffffffffffffffffffffffff1673ffffffffffffffffffffffffffffffffffffffff16815260200190815260200160002060090183815481106126d4576126d3613400565b5b906000526020600020016040516126eb91906133e9565b908152602001604051809103902060009054906101000a900460ff1615150361271d57818061271990612e26565b9250505b80806001019150506125f3565b506000808473ffffffffffffffffffffffffffffffffffffffff1673ffffffffffffffffffffffffffffffffffffffff168152602001908152602001600020600b0154811061277d576001915050612783565b60009150505b919050565b50805461279490612e9d565b6000825580601f106127a657506127c5565b601f0160209004906000526020600020908101906127c491906127e9565b5b50565b50805460008255906000526020600020908101906127e69190612806565b50565b5b808211156128025760008160009055506001016127ea565b5090565b5b80821115612826576000818161281d9190612788565b50600101612807565b5090565b6000604051905090565b600080fd5b600080fd5b600073ffffffffffffffffffffffffffffffffffffffff82169050919050565b60006128698261283e565b9050919050565b6128798161285e565b811461288457600080fd5b50565b60008135905061289681612870565b92915050565b6000819050919050565b6128af8161289c565b81146128ba57600080fd5b50565b6000813590506128cc816128a6565b92915050565b6000806000606084860312156128eb576128ea612834565b5b60006128f986828701612887565b935050602061290a868287016128bd565b925050604061291b868287016128bd565b9150509250925092565b60006020828403121561293b5761293a612834565b5b600061294984828501612887565b91505092915050565b600080fd5b600080fd5b6000601f19601f8301169050919050565b7f4e487b7100000000000000000000000000000000000000000000000000000000600052604160045260246000fd5b6129a58261295c565b810181811067ffffffffffffffff821117156129c4576129c361296d565b5b80604052505050565b60006129d761282a565b90506129e3828261299c565b919050565b600067ffffffffffffffff821115612a0357612a0261296d565b5b612a0c8261295c565b9050602081019050919050565b82818337600083830152505050565b6000612a3b612a36846129e8565b6129cd565b905082815260208101848484011115612a5757612a56612957565b5b612a62848285612a19565b509392505050565b600082601f830112612a7f57612a7e612952565b5b8135612a8f848260208601612a28565b91505092915050565b600080600060608486031215612ab157612ab0612834565b5b6000612abf86828701612887565b935050602084013567ffffffffffffffff811115612ae057612adf612839565b5b612aec86828701612a6a565b925050604084013567ffffffffffffffff811115612b0d57612b0c612839565b5b612b1986828701612a6a565b9150509250925092565b60008060408385031215612b3a57612b39612834565b5b6000612b4885828601612887565b925050602083013567ffffffffffffffff811115612b6957612b68612839565b5b612b7585828601612a6a565b9150509250929050565b600080600060608486031215612b9857612b97612834565b5b6000612ba686828701612887565b9350506020612bb786828701612887565b9250506040612bc886828701612887565b9150509250925092565b60008060408385031215612be957612be8612834565b5b6000612bf785828601612887565b9250506020612c08858286016128bd565b9150509250929050565b612c1b8161289c565b82525050565b612c2a8161285e565b82525050565b6000606082019050612c456000830186612c12565b612c526020830185612c21565b612c5f6040830184612c21565b949350505050565b600081519050919050565b600082825260208201905092915050565b60005b83811015612ca1578082015181840152602081019050612c86565b60008484015250505050565b6000612cb882612c67565b612cc28185612c72565b9350612cd2818560208601612c83565b612cdb8161295c565b840191505092915050565b60006020820190508181036000830152612d008184612cad565b905092915050565b6000606082019050612d1d6000830186612c12565b8181036020830152612d2f8185612cad565b90508181036040830152612d438184612cad565b9050949350505050565b60006060820190508181036000830152612d678186612cad565b9050612d766020830185612c12565b612d836040830184612c12565b949350505050565b7f7468652064656c65676174652065786973747300000000000000000000000000600082015250565b6000612dc1601383612c72565b9150612dcc82612d8b565b602082019050919050565b60006020820190508181036000830152612df081612db4565b9050919050565b7f4e487b7100000000000000000000000000000000000000000000000000000000600052601160045260246000fd5b6000612e318261289c565b91507fffffffffffffffffffffffffffffffffffffffffffffffffffffffffffffffff8203612e6357612e62612df7565b5b600182019050919050565b7f4e487b7100000000000000000000000000000000000000000000000000000000600052602260045260246000fd5b60006002820490506001821680612eb557607f821691505b602082108103612ec857612ec7612e6e565b5b50919050565b60008190508160005260206000209050919050565b60006020601f8301049050919050565b600082821b905092915050565b600060088302612f307fffffffffffffffffffffffffffffffffffffffffffffffffffffffffffffffff82612ef3565b612f3a8683612ef3565b95508019841693508086168417925050509392505050565b6000819050919050565b6000612f77612f72612f6d8461289c565b612f52565b61289c565b9050919050565b6000819050919050565b612f9183612f5c565b612fa5612f9d82612f7e565b848454612f00565b825550505050565b600090565b612fba612fad565b612fc5818484612f88565b505050565b5b81811015612fe957612fde600082612fb2565b600181019050612fcb565b5050565b601f82111561302e57612fff81612ece565b61300884612ee3565b81016020851015613017578190505b61302b61302385612ee3565b830182612fca565b50505b505050565b600082821c905092915050565b600061305160001984600802613033565b1980831691505092915050565b600061306a8383613040565b9150826002028217905092915050565b61308382612c67565b67ffffffffffffffff81111561309c5761309b61296d565b5b6130a68254612e9d565b6130b1828285612fed565b600060209050601f8311600181146130e457600084156130d2578287015190505b6130dc858261305e565b865550613144565b601f1984166130f286612ece565b60005b8281101561311a578489015182556001820191506020850194506020810190506130f5565b868310156131375784890151613133601f891682613040565b8355505b6001600288020188555050505b505050505050565b7f7468652044494420646f63756d656e7420616c72656164792065786973747300600082015250565b6000613182601f83612c72565b915061318d8261314c565b602082019050919050565b600060208201905081810360008301526131b181613175565b9050919050565b7f7468652044494420646f63756d656e7420686173206265656e207265766f6b6560008201527f6400000000000000000000000000000000000000000000000000000000000000602082015250565b6000613214602183612c72565b915061321f826131b8565b604082019050919050565b6000602082019050818103600083015261324381613207565b9050919050565b600081905092915050565b600061326082612c67565b61326a818561324a565b935061327a818560208601612c83565b80840191505092915050565b60006132928284613255565b915081905092915050565b7f746865206b65792076616c7565206973206e756c6c0000000000000000000000600082015250565b60006132d3601583612c72565b91506132de8261329d565b602082019050919050565b60006020820190508181036000830152613302816132c6565b9050919050565b60006133148261289c565b91506000820361332757613326612df7565b5b600182039050919050565b600061333d8261289c565b91506133488361289c565b92508282019050808211156133605761335f612df7565b5b92915050565b6000815461337381612e9d565b61337d818661324a565b9450600182166000811461339857600181146133ad576133e0565b60ff19831686528115158202860193506133e0565b6133b685612ece565b60005b838110156133d8578154818901526001820191506020810190506133b9565b838801955050505b50505092915050565b60006133f58284613366565b915081905092915050565b7f4e487b7100000000000000000000000000000000000000000000000000000000600052603260045260246000fd5b7f6167726565696e67206973207472756500000000000000000000000000000000600082015250565b6000613465601083612c72565b91506134708261342f565b602082019050919050565b6000602082019050818103600083015261349481613458565b9050919050565b6000815490506134aa81612e9d565b9050919050565b8181036134bf575050613597565b6134c88261349b565b67ffffffffffffffff8111156134e1576134e061296d565b5b6134eb8254612e9d565b6134f6828285612fed565b6000601f8311600181146135255760008415613513578287015490505b61351d858261305e565b865550613590565b601f19841661353387612ece565b965061353e86612ece565b60005b8281101561356657848901548255600182019150600185019450602081019050613541565b86831015613583578489015461357f601f891682613040565b8355505b6001600288020188555050505b5050505050505b56fea2646970667358221220910a1413fe6872da20eed5c792b4b505ca1b35d7bf7fd607273e1deaf8cbe37364736f6c634300081c0033",
  "linkReferences": {},
  "deployedLinkReferences": {}
}