{
  "_format": "hh-sol-artifact-1",
  "contractName": "SubAccumulator",
  "sourceName": "contracts/SubAccumulator.sol",
  "abi": [
    {
      "inputs": [
        {
          "internalType": "address",
          "name": "_issuerRegistryAddress",
          "type": "address"
        }
      ],
      "stateMutability": "nonpayable",
      "type": "constructor"
    },
    {
      "inputs": [
        {
          "internalType": "uint256",
          "name": "_bitmap",
          "type": "uint256"
        },
        {
          "internalType": "uint8",
          "name": "_hashCount",
          "type": "uint8"
        },
        {
          "internalType": "bytes32",
          "name": "_item",
          "type": "bytes32"
        }
      ],
      "name": "addToBitmap",
      "outputs": [
        {
          "internalType": "uint256",
          "name": "_newBitmap",
          "type": "uint256"
        }
      ],
      "stateMutability": "pure",
      "type": "function"
    },
    {
      "inputs": [
        {
          "internalType": "uint256",
          "name": "_bitmap",
          "type": "uint256"
        },
        {
          "internalType": "uint8",
          "name": "_hashCount",
          "type": "uint8"
        },
        {
          "internalType": "bytes32",
          "name": "_item",
          "type": "bytes32"
        }
      ],
      "name": "falsePositive",
      "outputs": [
        {
          "internalType": "bool",
          "name": "_probablyPresent",
          "type": "bool"
        }
      ],
      "stateMutability": "pure",
      "type": "function"
    },
    {
      "inputs": [],
      "name": "filter",
      "outputs": [
        {
          "internalType": "uint8",
          "name": "hashCount",
          "type": "uint8"
        },
        {
          "internalType": "uint256",
          "name": "bitmap",
          "type": "uint256"
        },
        {
          "internalType": "uint256",
          "name": "capacity",
          "type": "uint256"
        },
        {
          "internalType": "uint256",
          "name": "currentCount",
          "type": "uint256"
        },
        {
          "internalType": "uint256",
          "name": "currentEpoch",
          "type": "uint256"
        }
      ],
      "stateMutability": "view",
      "type": "function"
    },
    {
      "inputs": [],
      "name": "getEpoch",
      "outputs": [
        {
          "internalType": "uint256",
          "name": "",
          "type": "uint256"
        }
      ],
      "stateMutability": "view",
      "type": "function"
    },
    {
      "inputs": [],
      "name": "getFilter",
      "outputs": [
        {
          "internalType": "uint256",
          "name": "",
          "type": "uint256"
        },
        {
          "internalType": "uint256",
          "name": "",
          "type": "uint256"
        },
        {
          "internalType": "uint256",
          "name": "",
          "type": "uint256"
        },
        {
          "internalType": "uint256",
          "name": "",
          "type": "uint256"
        },
        {
          "internalType": "uint256",
          "name": "",
          "type": "uint256"
        }
      ],
      "stateMutability": "view",
      "type": "function"
    },
    {
      "inputs": [
        {
          "internalType": "uint256",
          "name": "_itemNum",
          "type": "uint256"
        }
      ],
      "name": "getHashCount",
      "outputs": [
        {
          "internalType": "uint8",
          "name": "",
          "type": "uint8"
        }
      ],
      "stateMutability": "pure",
      "type": "function"
    },
    {
      "inputs": [
        {
          "internalType": "uint256",
          "name": "_bitmap",
          "type": "uint256"
        }
      ],
      "name": "updateBitmap",
      "outputs": [],
      "stateMutability": "nonpayable",
      "type": "function"
    },
    {
      "inputs": [],
      "name": "updateEpoch",
      "outputs": [],
      "stateMutability": "nonpayable",
      "type": "function"
    },
    {
      "inputs": [
        {
          "internalType": "uint8",
          "name": "_hashCount",
          "type": "uint8"
        },
        {
          "internalType": "uint256",
          "name": "_capacity",
          "type": "uint256"
        }
      ],
      "name": "updateHashCount",
      "outputs": [],
      "stateMutability": "nonpayable",
      "type": "function"
    },
    {
      "inputs": [],
      "name": "updateLock",
      "outputs": [],
      "stateMutability": "nonpayable",
      "type": "function"
    }
  ],
  "bytecode": "0x608060405260008060146101000a81548160ff02191690831515021790555034801561002a57600080fd5b50604051610d5a380380610d5a833981810160405281019061004c91906100ff565b806000806101000a81548173ffffffffffffffffffffffffffffffffffffffff021916908373ffffffffffffffffffffffffffffffffffffffff160217905550600180600401819055505061012c565b600080fd5b600073ffffffffffffffffffffffffffffffffffffffff82169050919050565b60006100cc826100a1565b9050919050565b6100dc816100c1565b81146100e757600080fd5b50565b6000815190506100f9816100d3565b92915050565b6000602082840312156101155761011461009c565b5b6000610123848285016100ea565b91505092915050565b610c1f8061013b6000396000f3fe608060405234801561001057600080fd5b506004361061009e5760003560e01c8063677a787211610066578063677a78721461015f578063757991a81461016957806396a5edad14610187578063beb3ba5d146101a3578063fe0561bf146101bf5761009e565b806312540bc7146100a357806316ccd1ec146100d3578063250e7a4a1461010357806336f4fb02146101335780635fadcc1e1461013d575b600080fd5b6100bd60048036038101906100b891906106b8565b6101e1565b6040516100ca9190610726565b60405180910390f35b6100ed60048036038101906100e891906106b8565b6102f1565b6040516100fa9190610750565b60405180910390f35b61011d6004803603810190610118919061076b565b6103f0565b60405161012a91906107a7565b60405180910390f35b61013b610439565b005b6101456104b9565b6040516101569594939291906107c2565b60405180910390f35b6101676104ea565b005b610171610528565b60405161017e9190610750565b60405180910390f35b6101a1600480360381019061019c9190610815565b610535565b005b6101bd60048036038101906101b8919061076b565b61059e565b005b6101c76105c5565b6040516101d8959493929190610855565b60405180910390f35b6000808360ff1611610228576040517f08c379a000000000000000000000000000000000000000000000000000000000815260040161021f90610905565b60405180910390fd5b60005b8360ff168110156102e4576000610100848360405160200161024e929190610967565b6040516020818303038152906040528051906020012060001c61027191906109c2565b905061010081106102b7576040517f08c379a00000000000000000000000000000000000000000000000000000000081526004016102ae90610a3f565b60405180910390fd5b6000816001901b905080871787146102d557600093505050506102ea565b5050808060010191505061022b565b50600190505b9392505050565b600083905060008360ff161161033c576040517f08c379a000000000000000000000000000000000000000000000000000000000815260040161033390610905565b60405180910390fd5b60005b8360ff168110156103e85760006101008483604051602001610362929190610967565b6040516020818303038152906040528051906020012060001c61038591906109c2565b905061010081106103cb576040517f08c379a00000000000000000000000000000000000000000000000000000000081526004016103c290610a3f565b60405180910390fd5b6000816001901b905080841793505050808060010191505061033f565b509392505050565b60008060016064846104029190610a8e565b61900061040f9190610ad0565b6104199190610b01565b905061010081101561042e5780915050610434565b60ff9150505b919050565b600160020154600a6001600301546104519190610b01565b14610491576040517f08c379a000000000000000000000000000000000000000000000000000000000815260040161048890610b81565b60405180910390fd5b6000600160030181905550600160040160008154809291906104b290610ba1565b9190505550565b60018060000160009054906101000a900460ff16908060010154908060020154908060030154908060040154905085565b6001801515600060149054906101000a900460ff1615151461050b57600080fd5b60008060146101000a81548160ff02191690831515021790555050565b6000600160040154905090565b6000801515600060149054906101000a900460ff1615151461055657600080fd5b6001600060146101000a81548160ff02191690831515021790555082600160000160006101000a81548160ff021916908360ff16021790555081600160020181905550505050565b806001800181905550600160030160008154809291906105bd90610ba1565b919050555050565b60008060008060006001800154600160000160009054906101000a900460ff166001600301546001600201546001600401548360ff169350945094509450945094509091929394565b600080fd5b6000819050919050565b61062681610613565b811461063157600080fd5b50565b6000813590506106438161061d565b92915050565b600060ff82169050919050565b61065f81610649565b811461066a57600080fd5b50565b60008135905061067c81610656565b92915050565b6000819050919050565b61069581610682565b81146106a057600080fd5b50565b6000813590506106b28161068c565b92915050565b6000806000606084860312156106d1576106d061060e565b5b60006106df86828701610634565b93505060206106f08682870161066d565b9250506040610701868287016106a3565b9150509250925092565b60008115159050919050565b6107208161070b565b82525050565b600060208201905061073b6000830184610717565b92915050565b61074a81610613565b82525050565b60006020820190506107656000830184610741565b92915050565b6000602082840312156107815761078061060e565b5b600061078f84828501610634565b91505092915050565b6107a181610649565b82525050565b60006020820190506107bc6000830184610798565b92915050565b600060a0820190506107d76000830188610798565b6107e46020830187610741565b6107f16040830186610741565b6107fe6060830185610741565b61080b6080830184610741565b9695505050505050565b6000806040838503121561082c5761082b61060e565b5b600061083a8582860161066d565b925050602061084b85828601610634565b9150509250929050565b600060a08201905061086a6000830188610741565b6108776020830187610741565b6108846040830186610741565b6108916060830185610741565b61089e6080830184610741565b9695505050505050565b600082825260208201905092915050565b7f4861736820636f756e742063616e206e6f74206265207a65726f000000000000600082015250565b60006108ef601a836108a8565b91506108fa826108b9565b602082019050919050565b6000602082019050818103600083015261091e816108e2565b9050919050565b6000819050919050565b61094061093b82610682565b610925565b82525050565b6000819050919050565b61096161095c82610613565b610946565b82525050565b6000610973828561092f565b6020820191506109838284610950565b6020820191508190509392505050565b7f4e487b7100000000000000000000000000000000000000000000000000000000600052601260045260246000fd5b60006109cd82610613565b91506109d883610613565b9250826109e8576109e7610993565b5b828206905092915050565b7f4f766572666c6f77206572726f72000000000000000000000000000000000000600082015250565b6000610a29600e836108a8565b9150610a34826109f3565b602082019050919050565b60006020820190508181036000830152610a5881610a1c565b9050919050565b7f4e487b7100000000000000000000000000000000000000000000000000000000600052601160045260246000fd5b6000610a9982610613565b9150610aa483610613565b9250828202610ab281610613565b91508282048414831517610ac957610ac8610a5f565b5b5092915050565b6000610adb82610613565b9150610ae683610613565b925082610af657610af5610993565b5b828204905092915050565b6000610b0c82610613565b9150610b1783610613565b9250828201905080821115610b2f57610b2e610a5f565b5b92915050565b7f636170616369747920686173206e6f74206265656e2072656163686564000000600082015250565b6000610b6b601d836108a8565b9150610b7682610b35565b602082019050919050565b60006020820190508181036000830152610b9a81610b5e565b9050919050565b6000610bac82610613565b91507fffffffffffffffffffffffffffffffffffffffffffffffffffffffffffffffff8203610bde57610bdd610a5f565b5b60018201905091905056fea2646970667358221220ca718dfbe2d97b85bd0e7b50a8ecc502fd16761ca86669c4c01bcabde294b2ab64736f6c634300081c0033",
  "linkReferences": {},
  "deployedLinkReferences": {}
}